:1000000012C017C016C015C014C013C012C011C052
:1000100010C00FC00EC00DC00CC00BC00AC009C07C
:1000200008C007C006C011241FBECFEDCDBF02D04F
:1000300039C0E6CFCF93DF93CDB7DD2787E390E0DC
:10004000FC01208187E390E02160FC01208388E3AC
:1000500090E0FC01208188E390E02160FC01208396
:100060008EE490E0FC0120818EE490E02160FC01B0
:1000700020838CE490E0FC01808191818F31FEE44B
:100080009F07B8F388E390E0FC01308188E390E0BB
:1000900021E02327FC0120838CE490E0FC01118205
:0800A0001082E7CFF894FFCFB6
:00000001FF
