:1000000012C017C016C015C014C013C012C011C052
:1000100010C00FC00EC00DC00CC00BC00AC009C07C
:1000200008C007C006C011241FBECFEDCDBF02D04F
:1000300040C0E6CFCF93DF93CDB7DD278EE490E0CD
:10004000FC0120818EE490E02860FC0120838AE49A
:1000500090E028E03DE3FC01318320838EE490E0D2
:10006000FC0120818EE490E02360FC01208387E383
:1000700090E02FEFFC01208388E590E0FC01808177
:10008000882F90E0807499270097B1F388E590E07D
:10009000FC01208188E590E02064FC01208388E356
:1000A00090E0FC01208188E390E02095FC01208312
:0600B000E3CFF894FFCF3E
:00000001FF
