:1000000014C02CC02BC02AC029C028C027C026C0BD
:1000100025C024C023C022C021C020C01FC01EC0D4
:100020001DC01CC01BC01AC019C011241FBECFEDBB
:10003000CDBF10E0A0E6B0E0E0E9F1E002C005903D
:100040000D92A63AB107D9F720E0A6EAB0E001C0C8
:100050001D92A83AB207E1F702D098C0D1CFCF9352
:10006000DF93CDB7DD27CE50CDBF87E390E09C87EF
:100070008B8788E390E09E878D878B859C852FEF0B
:10008000FC0120838D859E85FC01108219821A82D5
:100090001B821C820FC08D859E85FC011082898188
:1000A0009A81AB81BC810196A11DB11D89839A8380
:1000B000AB83BC8389819A81AB81BC81883EF3E0AC
:1000C0009F07A105B1053CF31E821D8224C08D85CA
:1000D0009E85FC0140812091A6003091A700C901B6
:1000E000880F991F880F991F880F991F821B930BE8
:1000F0002D813E81820F931F805A9F4FFC0180818A
:10010000242F282B8D859E85FC0120838D819E8147
:1001100001969E838D838D819E8187309105BCF2EF
:100120001F82188619861A8610C08B859C852FEF32
:10013000FC0120838F819885A985BA850196A11D30
:10014000B11D8F839887A987BA878F819885A985E4
:10015000BA85803AF6E89F07F1E0AF07B1052CF3C6
:100160008091A6009091A700893091052CF0109203
:10017000A7001092A60086CF8091A6009091A700BC
:1001800001969093A7008093A6007CCFF894FFCFB0
:100190008040201008040000402000000000804043
:1001A00000100800028040201000000200402000E3
:1001B00000040280002010000402800020100804C7
:1001C00002804020000000008040201008040280CF
:0601D000402000000402C3
:00000001FF
