:1000000012C01FC01EC01DC01CC01BC01AC019C01A
:1000100018C017C016C015C014C013C012C011C03C
:1000200010C00FC00EC011241FBECFEDCDBF20E009
:10003000A0E6B0E001C01D92A436B207E1F702D0FD
:1000400062C0DECFCF93DF93CDB7DD2787E390E0AB
:10005000FC01208187E390E02160FC01208388E39C
:1000600090E0FC01208188E390E02160FC01208386
:100070008EE490E0FC0120818EE490E02160FC01A0
:1000800020838CE490E0FC01808191818F39FFE036
:100090009F07C0F08CE490E0FC01118210828091F7
:1000A000600090916100A0916200B09163000196A0
:1000B000A11DB11D8093600090936100A093620028
:1000C000B09363008091600090916100A091620004
:1000D000B0916300883EF3E09F07A105B10589F662
:1000E0001092600010926100109262001092630002
:1000F00088E390E0FC01308188E390E021E0232751
:0A010000FC012083BECFF894FFCF6E
:00000001FF
